{
    "contractName": "ElectronicSeal",
    "abi": [
        {
            "constant": false,
            "inputs": [
                {
                    "name": "_account",
                    "type": "address"
                },
                {
                    "name": "_name",
                    "type": "string"
                },
                {
                    "name": "_cardId",
                    "type": "string"
                },
                {
                    "name": "_datetime",
                    "type": "string"
                }
            ],
            "name": "addSealAccount",
            "outputs": [],
            "payable": false,
            "stateMutability": "nonpayable",
            "type": "function"
        },
        {
            "constant": false,
            "inputs": [
                {
                    "name": "_account",
                    "type": "address"
                },
                {
                    "name": "_hash",
                    "type": "string"
                },
                {
                    "name": "_code",
                    "type": "string"
                },
                {
                    "name": "_datetime",
                    "type": "string"
                }
            ],
            "name": "sealSignature",
            "outputs": [],
            "payable": false,
            "stateMutability": "nonpayable",
            "type": "function"
        },
        {
            "constant": true,
            "inputs": [
                {
                    "name": "_account",
                    "type": "address"
                }
            ],
            "name": "getSealAccount",
            "outputs": [
                {
                    "name": "",
                    "type": "string"
                },
                {
                    "name": "",
                    "type": "string"
                },
                {
                    "name": "",
                    "type": "string"
                }
            ],
            "payable": false,
            "stateMutability": "view",
            "type": "function"
        },
        {
            "constant": true,
            "inputs": [
                {
                    "name": "_account",
                    "type": "address"
                },
                {
                    "name": "_hash",
                    "type": "string"
                }
            ],
            "name": "querySignature",
            "outputs": [
                {
                    "name": "",
                    "type": "string"
                },
                {
                    "name": "",
                    "type": "string"
                }
            ],
            "payable": false,
            "stateMutability": "view",
            "type": "function"
        },
        {
            "constant": true,
            "inputs": [
                {
                    "name": "_account",
                    "type": "address"
                }
            ],
            "name": "queryAllHash",
            "outputs": [
                {
                    "name": "",
                    "type": "string[]"
                }
            ],
            "payable": false,
            "stateMutability": "view",
            "type": "function"
        },
        {
            "inputs": [],
            "payable": false,
            "stateMutability": "nonpayable",
            "type": "constructor"
        }
    ],
    "bytecode": "608060405234801561001057600080fd5b5060008054600160a060020a03191633179055611a0a806100326000396000f300608060405260043610620000725763ffffffff7c01000000000000000000000000000000000000000000000000000000006000350416635c4997ea8114620000775780636d0cfa48146200009e57806370f2f50514620000c3578063c36025991462000102578063c547120c1462000137575b600080fd5b3480156200008457600080fd5b506200009c620000963660046200070e565b6200016b565b005b348015620000ab57600080fd5b506200009c620000bd3660046200070e565b62000235565b348015620000d057600080fd5b50620000e8620000e23660046200068d565b62000319565b604051620000f99392919062000a2b565b60405180910390f35b3480156200010f57600080fd5b506200012762000121366004620006b6565b620003db565b604051620000f992919062000a02565b3480156200014457600080fd5b506200015c620001563660046200068d565b620004a1565b604051620000f99190620009dc565b60008054600160a060020a03163314620001bc576040517f08c379a0000000000000000000000000000000000000000000000000000000008152600401620001b39062000a73565b60405180910390fd5b838383620001c962000556565b620001d79392919062000a2b565b604051809103906000f080158015620001f4573d6000803e3d6000fd5b50600160a060020a039586166000908152600160205260409020805473ffffffffffffffffffffffffffffffffffffffff1916919096161790945550505050565b60008054600160a060020a031633146200027d576040517f08c379a0000000000000000000000000000000000000000000000000000000008152600401620001b39062000a73565b50600160a060020a03808516600090815260016020526040908190205490517fd6550355000000000000000000000000000000000000000000000000000000008152911690819063d655035590620002de9087908790879060040162000a2b565b600060405180830381600087803b158015620002f957600080fd5b505af11580156200030e573d6000803e3d6000fd5b505050505050505050565b600160a060020a038082166000908152600160205260408082205481517f3a0f692c00000000000000000000000000000000000000000000000000000000815291516060948594859493909116928392633a0f692c9260048084019391929182900301818387803b1580156200038e57600080fd5b505af1158015620003a3573d6000803e3d6000fd5b505050506040513d6000823e601f3d908101601f19168201604052620003cd919081019062000862565b935093509350509193909250565b600160a060020a03808316600090815260016020526040908190205490517f11dd88450000000000000000000000000000000000000000000000000000000081526060928392169081906311dd8845906200043b908790600401620009ef565b600060405180830381600087803b1580156200045657600080fd5b505af11580156200046b573d6000803e3d6000fd5b505050506040513d6000823e601f3d908101601f19168201604052620004959190810190620007fc565b92509250509250929050565b600160a060020a038082166000908152600160205260408082205481517f560b318c00000000000000000000000000000000000000000000000000000000815291516060949190911692839263560b318c926004808301939282900301818387803b1580156200051057600080fd5b505af115801562000525573d6000803e3d6000fd5b505050506040513d6000823e601f3d908101601f191682016040526200054f9190810190620007c3565b9392505050565b604051610e738062000b5e83390190565b60006200054f823562000b08565b6000601f820183136200058757600080fd5b81516200059e620005988262000ab3565b62000a8b565b81815260209384019390925082018360005b83811015620005e05781518601620005c98882620005ea565b8452506020928301929190910190600101620005b0565b5050505092915050565b6000601f82018313620005fc57600080fd5b81516200060d620005988262000ad5565b915080825260208301602083018583830111156200062a57600080fd5b6200063783828462000b20565b50505092915050565b6000601f820183136200065257600080fd5b813562000663620005988262000ad5565b915080825260208301602083018583830111156200068057600080fd5b6200063783828462000b14565b600060208284031215620006a057600080fd5b6000620006ae848462000567565b949350505050565b60008060408385031215620006ca57600080fd5b6000620006d8858562000567565b925050602083013567ffffffffffffffff811115620006f657600080fd5b620007048582860162000640565b9150509250929050565b600080600080608085870312156200072557600080fd5b600062000733878762000567565b945050602085013567ffffffffffffffff8111156200075157600080fd5b6200075f8782880162000640565b935050604085013567ffffffffffffffff8111156200077d57600080fd5b6200078b8782880162000640565b925050606085013567ffffffffffffffff811115620007a957600080fd5b620007b78782880162000640565b91505092959194509250565b600060208284031215620007d657600080fd5b815167ffffffffffffffff811115620007ee57600080fd5b620006ae8482850162000575565b600080604083850312156200081057600080fd5b825167ffffffffffffffff8111156200082857600080fd5b6200083685828601620005ea565b925050602083015167ffffffffffffffff8111156200085457600080fd5b6200070485828601620005ea565b6000806000606084860312156200087857600080fd5b835167ffffffffffffffff8111156200089057600080fd5b6200089e86828701620005ea565b935050602084015167ffffffffffffffff811115620008bc57600080fd5b620008ca86828701620005ea565b925050604084015167ffffffffffffffff811115620008e857600080fd5b620008f686828701620005ea565b9150509250925092565b60006200090d8262000b04565b80845260208401935083602082028501620009288562000afe565b60005b84811015620009655783830388526200094683835162000971565b9250620009538262000afe565b6020989098019791506001016200092b565b50909695505050505050565b60006200097e8262000b04565b8084526200099481602086016020860162000b20565b6200099f8162000b53565b9093016020019392505050565b601381527f4f6e6c79206f776e65722063616e2063616c6c00000000000000000000000000602082015260400190565b602080825281016200054f818462000900565b602080825281016200054f818462000971565b6040808252810162000a15818562000971565b90508181036020830152620006ae818462000971565b6060808252810162000a3e818662000971565b9050818103602083015262000a54818562000971565b9050818103604083015262000a6a818462000971565b95945050505050565b6020808252810162000a8581620009ac565b92915050565b60405181810167ffffffffffffffff8111828210171562000aab57600080fd5b604052919050565b600067ffffffffffffffff82111562000acb57600080fd5b5060209081020190565b600067ffffffffffffffff82111562000aed57600080fd5b506020601f91909101601f19160190565b60200190565b5190565b600160a060020a031690565b82818337506000910152565b60005b8381101562000b3d57818101518382015260200162000b23565b8381111562000b4d576000848401525b50505050565b601f01601f191690560060806040523480156200001157600080fd5b5060405162000e7338038062000e73833981018060405262000037919081019062000183565b82516200004c90600090602086019062000082565b5081516200006290600190602085019062000082565b5080516200007890600290602084019062000082565b50505050620002a0565b828054600181600116156101000203166002900490600052602060002090601f016020900481019282601f10620000c557805160ff1916838001178555620000f5565b82800160010185558215620000f5579182015b82811115620000f5578251825591602001919060010190620000d8565b506200010392915062000107565b5090565b6200012491905b808211156200010357600081556001016200010e565b90565b6000601f820183136200013957600080fd5b8151620001506200014a8262000245565b6200021e565b915080825260208301602083018583830111156200016d57600080fd5b6200017a8382846200026d565b50505092915050565b6000806000606084860312156200019957600080fd5b83516001604060020a03811115620001b057600080fd5b620001be8682870162000127565b93505060208401516001604060020a03811115620001db57600080fd5b620001e98682870162000127565b92505060408401516001604060020a038111156200020657600080fd5b620002148682870162000127565b9150509250925092565b6040518181016001604060020a03811182821017156200023d57600080fd5b604052919050565b60006001604060020a038211156200025c57600080fd5b506020601f91909101601f19160190565b60005b838110156200028a57818101518382015260200162000270565b838111156200029a576000848401525b50505050565b610bc380620002b06000396000f30060806040526004361061006c5763ffffffff7c010000000000000000000000000000000000000000000000000000000060003504166311dd884581146100715780633a0f692c146100a85780633c995055146100cc578063560b318c146100e1578063d655035514610103575b600080fd5b34801561007d57600080fd5b5061009161008c3660046108fe565b610125565b60405161009f929190610a83565b60405180910390f35b3480156100b457600080fd5b506100bd6102e1565b60405161009f93929190610aa8565b3480156100d857600080fd5b506100bd6104b7565b3480156100ed57600080fd5b506100f6610679565b60405161009f9190610a6b565b34801561010f57600080fd5b5061012361011e36600461093b565b610752565b005b6060806101306107fb565b6003846040518082805190602001908083835b602083106101625780518252601f199092019160209182019101610143565b518151600019602094850361010090810a8201928316921993909316919091179092529490920196875260408051978890038201882080546060601f60026001841615909902909601909116969096049384018390049092028801850181528701828152909550869450928592508401828280156102215780601f106101f657610100808354040283529160200191610221565b820191906000526020600020905b81548152906001019060200180831161020457829003601f168201915b50505050508152602001600182018054600181600116156101000203166002900480601f0160208091040260200160405190810160405280929190818152602001828054600181600116156101000203166002900480156102c35780601f10610298576101008083540402835291602001916102c3565b820191906000526020600020905b8154815290600101906020018083116102a657829003601f168201915b50505091909252505081516020909201519196919550909350505050565b60608060606000800160006001016000600201828054600181600116156101000203166002900480601f0160208091040260200160405190810160405280929190818152602001828054600181600116156101000203166002900480156103895780601f1061035e57610100808354040283529160200191610389565b820191906000526020600020905b81548152906001019060200180831161036c57829003601f168201915b5050855460408051602060026001851615610100026000190190941693909304601f8101849004840282018401909252818152959850879450925084019050828280156104175780601f106103ec57610100808354040283529160200191610417565b820191906000526020600020905b8154815290600101906020018083116103fa57829003601f168201915b5050845460408051602060026001851615610100026000190190941693909304601f8101849004840282018401909252818152959750869450925084019050828280156104a55780601f1061047a576101008083540402835291602001916104a5565b820191906000526020600020905b81548152906001019060200180831161048857829003601f168201915b50505050509050925092509250909192565b60008054604080516020601f6002600019610100600188161502019095169490940493840181900481028201810190925282815291839183018282801561053f5780601f106105145761010080835404028352916020019161053f565b820191906000526020600020905b81548152906001019060200180831161052257829003601f168201915b505050505090806001018054600181600116156101000203166002900480601f0160208091040260200160405190810160405280929190818152602001828054600181600116156101000203166002900480156105dd5780601f106105b2576101008083540402835291602001916105dd565b820191906000526020600020905b8154815290600101906020018083116105c057829003601f168201915b50505060028085018054604080516020601f600019610100600187161502019094169590950492830185900485028101850190915281815295969594509092509083018282801561066f5780601f106106445761010080835404028352916020019161066f565b820191906000526020600020905b81548152906001019060200180831161065257829003601f168201915b5050505050905083565b60606004805480602002602001604051908101604052809291908181526020016000905b828210156107485760008481526020908190208301805460408051601f60026000196101006001871615020190941693909304928301859004850281018501909152818152928301828280156107345780601f1061070957610100808354040283529160200191610734565b820191906000526020600020905b81548152906001019060200180831161071757829003601f168201915b50505050508152602001906001019061069d565b5050505090505b90565b6040805190810160405280838152602001828152506003846040518082805190602001908083835b602083106107995780518252601f19909201916020918201910161077a565b51815160209384036101000a60001901801990921691161790529201948552506040519384900381019093208451805191946107da94508593500190610812565b5060208281015180516107f39260018501920190610812565b505050505050565b604080518082019091526060808252602082015290565b828054600181600116156101000203166002900490600052602060002090601f016020900481019282601f1061085357805160ff1916838001178555610880565b82800160010185558215610880579182015b82811115610880578251825591602001919060010190610865565b5061088c929150610890565b5090565b61074f91905b8082111561088c5760008155600101610896565b6000601f820183136108bb57600080fd5b81356108ce6108c982610b11565b610aea565b915080825260208301602083018583830111156108ea57600080fd5b6108f5838284610b43565b50505092915050565b60006020828403121561091057600080fd5b813567ffffffffffffffff81111561092757600080fd5b610933848285016108aa565b949350505050565b60008060006060848603121561095057600080fd5b833567ffffffffffffffff81111561096757600080fd5b610973868287016108aa565b935050602084013567ffffffffffffffff81111561099057600080fd5b61099c868287016108aa565b925050604084013567ffffffffffffffff8111156109b957600080fd5b6109c5868287016108aa565b9150509250925092565b60006109da82610b3f565b808452602084019350836020820285016109f385610b39565b60005b84811015610a2a578383038852610a0e838351610a36565b9250610a1982610b39565b6020989098019791506001016109f6565b50909695505050505050565b6000610a4182610b3f565b808452610a55816020860160208601610b4f565b610a5e81610b7f565b9093016020019392505050565b60208082528101610a7c81846109cf565b9392505050565b60408082528101610a948185610a36565b905081810360208301526109338184610a36565b60608082528101610ab98186610a36565b90508181036020830152610acd8185610a36565b90508181036040830152610ae18184610a36565b95945050505050565b60405181810167ffffffffffffffff81118282101715610b0957600080fd5b604052919050565b600067ffffffffffffffff821115610b2857600080fd5b506020601f91909101601f19160190565b60200190565b5190565b82818337506000910152565b60005b83811015610b6a578181015183820152602001610b52565b83811115610b79576000848401525b50505050565b601f01601f1916905600a265627a7a72305820cf01b76a7632650d869bbd31dcfad9578951e6d055dc19e38f5b6c1828b401f76c6578706572696d656e74616cf50037a265627a7a723058202582188e744a2a3cd6c7a1976eee1123489bee43713bddf1f7b4df88a635f3bd6c6578706572696d656e74616cf50037",
    "sourcePath": "g:/chainspace/ElectronicSeal/contracts/ElectronicSeal.sol",
    "compiler": {
        "name": "solc",
        "version": "0.4.25+commit.59dbf8f1"
    },
    "functionHashes": {
        "addSealAccount(address,string,string,string)": "5c4997ea",
        "getSealAccount(address)": "70f2f505",
        "queryAllHash(address)": "c547120c",
        "querySignature(address,string)": "c3602599",
        "sealSignature(address,string,string,string)": "6d0cfa48"
    },
    "gasEstimates": {
        "creation": {
            "codeDepositCost": "1333200",
            "executionCost": "21682",
            "totalCost": "1354882"
        },
        "external": {
            "addSealAccount(address,string,string,string)": "infinite",
            "getSealAccount(address)": "infinite",
            "queryAllHash(address)": "infinite",
            "querySignature(address,string)": "infinite",
            "sealSignature(address,string,string,string)": "infinite"
        }
    }
}