{
    "contractName": "Seal",
    "abi": [
        {
            "constant": true,
            "inputs": [
                {
                    "name": "_hash",
                    "type": "string"
                }
            ],
            "name": "getRecord",
            "outputs": [
                {
                    "name": "",
                    "type": "string"
                },
                {
                    "name": "",
                    "type": "string"
                }
            ],
            "payable": false,
            "stateMutability": "view",
            "type": "function"
        },
        {
            "constant": true,
            "inputs": [],
            "name": "getSealInfo",
            "outputs": [
                {
                    "name": "",
                    "type": "string"
                },
                {
                    "name": "",
                    "type": "string"
                },
                {
                    "name": "",
                    "type": "string"
                }
            ],
            "payable": false,
            "stateMutability": "view",
            "type": "function"
        },
        {
            "constant": true,
            "inputs": [],
            "name": "sealInfo",
            "outputs": [
                {
                    "name": "name",
                    "type": "string"
                },
                {
                    "name": "cardId",
                    "type": "string"
                },
                {
                    "name": "datatime",
                    "type": "string"
                }
            ],
            "payable": false,
            "stateMutability": "view",
            "type": "function"
        },
        {
            "constant": true,
            "inputs": [],
            "name": "getAllHash",
            "outputs": [
                {
                    "name": "",
                    "type": "string[]"
                }
            ],
            "payable": false,
            "stateMutability": "view",
            "type": "function"
        },
        {
            "constant": false,
            "inputs": [
                {
                    "name": "_hash",
                    "type": "string"
                },
                {
                    "name": "_code",
                    "type": "string"
                },
                {
                    "name": "_datetime",
                    "type": "string"
                }
            ],
            "name": "signature",
            "outputs": [],
            "payable": false,
            "stateMutability": "nonpayable",
            "type": "function"
        },
        {
            "inputs": [
                {
                    "name": "_name",
                    "type": "string"
                },
                {
                    "name": "_cardId",
                    "type": "string"
                },
                {
                    "name": "_datetime",
                    "type": "string"
                }
            ],
            "payable": false,
            "stateMutability": "nonpayable",
            "type": "constructor"
        }
    ],
    "bytecode": "60806040523480156200001157600080fd5b5060405162000ebd38038062000ebd833981018060405262000037919081019062000183565b82516200004c90600090602086019062000082565b5081516200006290600190602085019062000082565b5080516200007890600290602084019062000082565b50505050620002a0565b828054600181600116156101000203166002900490600052602060002090601f016020900481019282601f10620000c557805160ff1916838001178555620000f5565b82800160010185558215620000f5579182015b82811115620000f5578251825591602001919060010190620000d8565b506200010392915062000107565b5090565b6200012491905b808211156200010357600081556001016200010e565b90565b6000601f820183136200013957600080fd5b8151620001506200014a8262000245565b6200021e565b915080825260208301602083018583830111156200016d57600080fd5b6200017a8382846200026d565b50505092915050565b6000806000606084860312156200019957600080fd5b83516001604060020a03811115620001b057600080fd5b620001be8682870162000127565b93505060208401516001604060020a03811115620001db57600080fd5b620001e98682870162000127565b92505060408401516001604060020a038111156200020657600080fd5b620002148682870162000127565b9150509250925092565b6040518181016001604060020a03811182821017156200023d57600080fd5b604052919050565b60006001604060020a038211156200025c57600080fd5b506020601f91909101601f19160190565b60005b838110156200028a57818101518382015260200162000270565b838111156200029a576000848401525b50505050565b610c0d80620002b06000396000f30060806040526004361061006c5763ffffffff7c010000000000000000000000000000000000000000000000000000000060003504166311dd884581146100715780633a0f692c146100a85780633c995055146100cc578063560b318c146100e1578063d655035514610103575b600080fd5b34801561007d57600080fd5b5061009161008c366004610948565b610125565b60405161009f929190610acd565b60405180910390f35b3480156100b457600080fd5b506100bd6102e1565b60405161009f93929190610af2565b3480156100d857600080fd5b506100bd6104b7565b3480156100ed57600080fd5b506100f6610679565b60405161009f9190610ab5565b34801561010f57600080fd5b5061012361011e366004610985565b610752565b005b606080610130610845565b6003846040518082805190602001908083835b602083106101625780518252601f199092019160209182019101610143565b518151600019602094850361010090810a8201928316921993909316919091179092529490920196875260408051978890038201882080546060601f60026001841615909902909601909116969096049384018390049092028801850181528701828152909550869450928592508401828280156102215780601f106101f657610100808354040283529160200191610221565b820191906000526020600020905b81548152906001019060200180831161020457829003601f168201915b50505050508152602001600182018054600181600116156101000203166002900480601f0160208091040260200160405190810160405280929190818152602001828054600181600116156101000203166002900480156102c35780601f10610298576101008083540402835291602001916102c3565b820191906000526020600020905b8154815290600101906020018083116102a657829003601f168201915b50505091909252505081516020909201519196919550909350505050565b60608060606000800160006001016000600201828054600181600116156101000203166002900480601f0160208091040260200160405190810160405280929190818152602001828054600181600116156101000203166002900480156103895780601f1061035e57610100808354040283529160200191610389565b820191906000526020600020905b81548152906001019060200180831161036c57829003601f168201915b5050855460408051602060026001851615610100026000190190941693909304601f8101849004840282018401909252818152959850879450925084019050828280156104175780601f106103ec57610100808354040283529160200191610417565b820191906000526020600020905b8154815290600101906020018083116103fa57829003601f168201915b5050845460408051602060026001851615610100026000190190941693909304601f8101849004840282018401909252818152959750869450925084019050828280156104a55780601f1061047a576101008083540402835291602001916104a5565b820191906000526020600020905b81548152906001019060200180831161048857829003601f168201915b50505050509050925092509250909192565b60008054604080516020601f6002600019610100600188161502019095169490940493840181900481028201810190925282815291839183018282801561053f5780601f106105145761010080835404028352916020019161053f565b820191906000526020600020905b81548152906001019060200180831161052257829003601f168201915b505050505090806001018054600181600116156101000203166002900480601f0160208091040260200160405190810160405280929190818152602001828054600181600116156101000203166002900480156105dd5780601f106105b2576101008083540402835291602001916105dd565b820191906000526020600020905b8154815290600101906020018083116105c057829003601f168201915b50505060028085018054604080516020601f600019610100600187161502019094169590950492830185900485028101850190915281815295969594509092509083018282801561066f5780601f106106445761010080835404028352916020019161066f565b820191906000526020600020905b81548152906001019060200180831161065257829003601f168201915b5050505050905083565b60606004805480602002602001604051908101604052809291908181526020016000905b828210156107485760008481526020908190208301805460408051601f60026000196101006001871615020190941693909304928301859004850281018501909152818152928301828280156107345780601f1061070957610100808354040283529160200191610734565b820191906000526020600020905b81548152906001019060200180831161071757829003601f168201915b50505050508152602001906001019061069d565b5050505090505b90565b6040805190810160405280838152602001828152506003846040518082805190602001908083835b602083106107995780518252601f19909201916020918201910161077a565b51815160209384036101000a60001901801990921691161790529201948552506040519384900381019093208451805191946107da9450859350019061085c565b5060208281015180516107f3926001850192019061085c565b50506004805460018101808355600092909252855191925061083e917f8a35acfbc15ff81a39ae7d344fd709f28e8600b4aa8c65c6b64bfe7fe36bd19b90910190602087019061085c565b5050505050565b604080518082019091526060808252602082015290565b828054600181600116156101000203166002900490600052602060002090601f016020900481019282601f1061089d57805160ff19168380011785556108ca565b828001600101855582156108ca579182015b828111156108ca5782518255916020019190600101906108af565b506108d69291506108da565b5090565b61074f91905b808211156108d657600081556001016108e0565b6000601f8201831361090557600080fd5b813561091861091382610b5b565b610b34565b9150808252602083016020830185838301111561093457600080fd5b61093f838284610b8d565b50505092915050565b60006020828403121561095a57600080fd5b813567ffffffffffffffff81111561097157600080fd5b61097d848285016108f4565b949350505050565b60008060006060848603121561099a57600080fd5b833567ffffffffffffffff8111156109b157600080fd5b6109bd868287016108f4565b935050602084013567ffffffffffffffff8111156109da57600080fd5b6109e6868287016108f4565b925050604084013567ffffffffffffffff811115610a0357600080fd5b610a0f868287016108f4565b9150509250925092565b6000610a2482610b89565b80845260208401935083602082028501610a3d85610b83565b60005b84811015610a74578383038852610a58838351610a80565b9250610a6382610b83565b602098909801979150600101610a40565b50909695505050505050565b6000610a8b82610b89565b808452610a9f816020860160208601610b99565b610aa881610bc9565b9093016020019392505050565b60208082528101610ac68184610a19565b9392505050565b60408082528101610ade8185610a80565b9050818103602083015261097d8184610a80565b60608082528101610b038186610a80565b90508181036020830152610b178185610a80565b90508181036040830152610b2b8184610a80565b95945050505050565b60405181810167ffffffffffffffff81118282101715610b5357600080fd5b604052919050565b600067ffffffffffffffff821115610b7257600080fd5b506020601f91909101601f19160190565b60200190565b5190565b82818337506000910152565b60005b83811015610bb4578181015183820152602001610b9c565b83811115610bc3576000848401525b50505050565b601f01601f1916905600a265627a7a7230582076ce386613bc2e239611c9a665f0ece263b1e4b7542fe54d65e1502b6466378f6c6578706572696d656e74616cf50037",
    "sourcePath": "g:/chainspace/ElectronicSeal/contracts/Seal.sol",
    "compiler": {
        "name": "solc",
        "version": "0.4.25+commit.59dbf8f1"
    },
    "functionHashes": {
        "getAllHash()": "560b318c",
        "getRecord(string)": "11dd8845",
        "getSealInfo()": "3a0f692c",
        "sealInfo()": "3c995055",
        "signature(string,string,string)": "d6550355"
    },
    "gasEstimates": {
        "creation": {
            "codeDepositCost": "617000",
            "executionCost": "infinite",
            "totalCost": "infinite"
        },
        "external": {
            "getAllHash()": "infinite",
            "getRecord(string)": "infinite",
            "getSealInfo()": "infinite",
            "sealInfo()": "infinite",
            "signature(string,string,string)": "infinite"
        }
    }
}